{
  "contractName": "Election",
  "abi": [
    {
      "constant": true,
      "inputs": [
        {
          "name": "",
          "type": "address"
        }
      ],
      "name": "voters",
      "outputs": [
        {
          "name": "",
          "type": "bool"
        }
      ],
      "payable": false,
      "stateMutability": "view",
      "type": "function"
    },
    {
      "inputs": [],
      "payable": false,
      "stateMutability": "nonpayable",
      "type": "constructor"
    },
    {
      "anonymous": false,
      "inputs": [
        {
          "indexed": false,
          "name": "message",
          "type": "string"
        },
        {
          "indexed": false,
          "name": "name",
          "type": "bytes32"
        }
      ],
      "name": "CandidateAdded",
      "type": "event"
    },
    {
      "anonymous": false,
      "inputs": [
        {
          "indexed": false,
          "name": "message",
          "type": "string"
        },
        {
          "indexed": false,
          "name": "_candidateId",
          "type": "uint256"
        }
      ],
      "name": "votedEvent",
      "type": "event"
    },
    {
      "constant": false,
      "inputs": [
        {
          "name": "name",
          "type": "string"
        }
      ],
      "name": "addName",
      "outputs": [],
      "payable": false,
      "stateMutability": "nonpayable",
      "type": "function"
    },
    {
      "constant": true,
      "inputs": [],
      "name": "getNames",
      "outputs": [
        {
          "name": "",
          "type": "bytes32[]"
        }
      ],
      "payable": false,
      "stateMutability": "view",
      "type": "function"
    },
    {
      "constant": true,
      "inputs": [],
      "name": "getResults",
      "outputs": [
        {
          "name": "",
          "type": "uint256[]"
        }
      ],
      "payable": false,
      "stateMutability": "view",
      "type": "function"
    },
    {
      "constant": true,
      "inputs": [],
      "name": "findUserVote",
      "outputs": [
        {
          "name": "",
          "type": "bool"
        }
      ],
      "payable": false,
      "stateMutability": "view",
      "type": "function"
    },
    {
      "constant": false,
      "inputs": [
        {
          "name": "_candidateId",
          "type": "uint256"
        }
      ],
      "name": "vote",
      "outputs": [],
      "payable": false,
      "stateMutability": "nonpayable",
      "type": "function"
    },
    {
      "constant": true,
      "inputs": [
        {
          "name": "source",
          "type": "string"
        }
      ],
      "name": "stringToBytes32",
      "outputs": [
        {
          "name": "result",
          "type": "bytes32"
        }
      ],
      "payable": false,
      "stateMutability": "pure",
      "type": "function"
    }
  ],
  "bytecode": "0x608060405234801561001057600080fd5b5061005e6040805190810160405280601381526020017f4d61726b204b79616c6f2c432c6d652e6a706700000000000000000000000000815250610197640100000000026401000000009004565b6100ab6040805190810160405280601481526020017f53616c6c79204b75692c432c6c6164792e6a7067000000000000000000000000815250610197640100000000026401000000009004565b6100f86040805190810160405280601881526020017f4261727279204f62616d612c432c6f62616d612e776562700000000000000000815250610197640100000000026401000000009004565b6101456040805190810160405280601781526020017f5065746572204772696666696e2c432c6661742e6a7067000000000000000000815250610197640100000000026401000000009004565b6101926040805190810160405280601481526020017f4e4f20564f54452c432c6e6f766f74652e6a7067000000000000000000000000815250610197640100000000026401000000009004565b6102ca565b60006101b18261029f640100000000026401000000009004565b90806001815401808255809150509060018203906000526020600020016000909192909190915090600019169055506001600090806001815401808255809150509060018203906000526020600020016000909192909190915055507f8ea216c95e3218a55513cd1db45309ac38b030ff2c2761b2c0f579e73e1bc2c46102468261029f640100000000026401000000009004565b60405180806020018360001916600019168152602001828103825260148152602001807f4e65772063616e646964617465206164646564210000000000000000000000008152506020019250505060405180910390a150565b600060608290506000815114156102bc57600060010291506102c4565b602083015191505b50919050565b6106bb806102d96000396000f300608060405260043610610083576000357c0100000000000000000000000000000000000000000000000000000000900463ffffffff1680630121b93f1461008857806311456b47146100b55780634717f97c1461011e578063a2cd5ff11461018a578063a3ec138d146101b9578063cd838f0f14610214578063cfb5192814610280575b600080fd5b34801561009457600080fd5b506100b360048036038101908080359060200190929190505050610305565b005b3480156100c157600080fd5b5061011c600480360381019080803590602001908201803590602001908080601f0160208091040260200160405190810160405280939291908181526020018383808284378201915050505050509192919290505050610452565b005b34801561012a57600080fd5b5061013361053c565b6040518080602001828103825283818151815260200191508051906020019060200280838360005b8381101561017657808201518184015260208101905061015b565b505050509050019250505060405180910390f35b34801561019657600080fd5b5061019f610594565b604051808215151515815260200191505060405180910390f35b3480156101c557600080fd5b506101fa600480360381019080803573ffffffffffffffffffffffffffffffffffffffff1690602001909291905050506105e8565b604051808215151515815260200191505060405180910390f35b34801561022057600080fd5b50610229610608565b6040518080602001828103825283818151815260200191508051906020019060200280838360005b8381101561026c578082015181840152602081019050610251565b505050509050019250505060405180910390f35b34801561028c57600080fd5b506102e7600480360381019080803590602001908201803590602001908080601f0160208091040260200160405190810160405280939291908181526020018383808284378201915050505050509192919290505050610664565b60405180826000191660001916815260200191505060405180910390f35b600260003373ffffffffffffffffffffffffffffffffffffffff1673ffffffffffffffffffffffffffffffffffffffff16815260200190815260200160002060009054906101000a900460ff1615151561035e57600080fd5b6001600260003373ffffffffffffffffffffffffffffffffffffffff1673ffffffffffffffffffffffffffffffffffffffff16815260200190815260200160002060006101000a81548160ff0219169083151502179055506001818154811015156103c557fe5b90600052602060002001600081548092919060010191905055507f8f0f7d03219948a2b8739cb4611b7300a297fbae05e48e93b4b862dd522115798160405180806020018381526020018281038252600c8152602001807f566f746520506c616365642100000000000000000000000000000000000000008152506020019250505060405180910390a150565b600061045d82610664565b90806001815401808255809150509060018203906000526020600020016000909192909190915090600019169055506001600090806001815401808255809150509060018203906000526020600020016000909192909190915055507f8ea216c95e3218a55513cd1db45309ac38b030ff2c2761b2c0f579e73e1bc2c46104e382610664565b60405180806020018360001916600019168152602001828103825260148152602001807f4e65772063616e646964617465206164646564210000000000000000000000008152506020019250505060405180910390a150565b6060600180548060200260200160405190810160405280929190818152602001828054801561058a57602002820191906000526020600020905b815481526020019060010190808311610576575b5050505050905090565b6000600260003373ffffffffffffffffffffffffffffffffffffffff1673ffffffffffffffffffffffffffffffffffffffff16815260200190815260200160002060009054906101000a900460ff16905090565b60026020528060005260406000206000915054906101000a900460ff1681565b6060600080548060200260200160405190810160405280929190818152602001828054801561065a57602002820191906000526020600020905b81546000191681526020019060010190808311610642575b5050505050905090565b600060608290506000815114156106815760006001029150610689565b602083015191505b509190505600a165627a7a723058204af895b46bd7f5b6841ab277c71a7cca722b1f8e158c780a3fcd9af51bc8aa8f0029",
  "source": "pragma solidity >=0.4.22 < 0.8.0;\r\n\r\ncontract Election {\r\n\r\n    event CandidateAdded(string message, bytes32 name);\r\n    // voted event\r\n    event votedEvent (string message, uint _candidateId);\r\n\r\n    bytes32[] names;\r\n    uint[] voteCount;\r\n\r\n    // Store accounts that have voted\r\n    mapping(address => bool) public voters;\r\n\r\n    constructor () public {\r\n            addName(\"Mark Kyalo,C,me.jpg\");\r\n            addName(\"Sally Kui,C,lady.jpg\");\r\n            addName(\"Barry Obama,C,obama.webp\");\r\n            addName(\"Peter Griffin,C,fat.jpg\");\r\n            addName(\"NO VOTE,C,novote.jpg\");\r\n    }\r\n  \r\n    function addName(string name) public {\r\n        \r\n        names.push(stringToBytes32(name));\r\n\r\n        voteCount.push(0);\r\n\r\n        emit CandidateAdded(\"New candidate added!\", stringToBytes32(name));\r\n    }\r\n\r\n  \r\n    function getNames() public view returns (bytes32[] memory) {\r\n        return names;\r\n    }\r\n\r\n    function getResults() public view returns (uint[] memory) {\r\n        return voteCount;\r\n    }\r\n\r\n    function findUserVote() public view returns (bool) {\r\n        return voters[msg.sender];\r\n    }\r\n\r\n    function vote (uint _candidateId) public {\r\n        // require that the voter hasn't voted yet\r\n        require(!voters[msg.sender]);\r\n\r\n        // record that voter has voted\r\n        voters[msg.sender] = true;\r\n\r\n        // update candidate's vote Count\r\n        voteCount[_candidateId] ++;\r\n\r\n        // trigger voted event\r\n        emit votedEvent(\"Vote Placed!\", _candidateId);\r\n    }\r\n\r\n    function stringToBytes32(string memory source) public pure returns (bytes32 result) {\r\n        bytes memory tempEmptyStringTest = bytes(source);\r\n        if (tempEmptyStringTest.length == 0) {\r\n            return 0x0;\r\n        }\r\n\r\n        assembly {\r\n            result := mload(add(source, 32))\r\n        }\r\n    }\r\n\r\n}",
  "sourcePath": "C:\\xampp\\htdocs\\bvsapp3\\contracts\\Election.sol",
  "compiler": {
    "name": "solc",
    "version": "0.4.24+commit.e67f0147.Emscripten.clang"
  },
  "schemaVersion": "3.2.0",
  "updatedAt": "2020-12-21T12:27:06.724Z",
  "networkType": "ethereum",
  "devdoc": {
    "methods": {}
  },
  "userdoc": {
    "methods": {}
  }
}